{
	"HelloWorld.sol": {
		"GlobalVariables": {
			"abi": [
				{
					"inputs": [],
					"name": "globalVars",
					"outputs": [
						{
							"internalType": "address",
							"name": "",
							"type": "address"
						},
						{
							"internalType": "uint256",
							"name": "",
							"type": "uint256"
						},
						{
							"internalType": "uint256",
							"name": "",
							"type": "uint256"
						}
					],
					"stateMutability": "view",
					"type": "function"
				}
			],
			"devdoc": {
				"kind": "dev",
				"methods": {},
				"version": 1
			},
			"evm": {
				"assembly": "    /* \"HelloWorld.sol\":991:1262  contract GlobalVariables{\r... */\n  mstore(0x40, 0x80)\n  callvalue\n  dup1\n  iszero\n  tag_1\n  jumpi\n  0x00\n  dup1\n  revert\ntag_1:\n  pop\n  dataSize(sub_0)\n  dup1\n  dataOffset(sub_0)\n  0x00\n  codecopy\n  0x00\n  return\nstop\n\nsub_0: assembly {\n        /* \"HelloWorld.sol\":991:1262  contract GlobalVariables{\r... */\n      mstore(0x40, 0x80)\n      callvalue\n      dup1\n      iszero\n      tag_1\n      jumpi\n      0x00\n      dup1\n      revert\n    tag_1:\n      pop\n      jumpi(tag_2, lt(calldatasize, 0x04))\n      shr(0xe0, calldataload(0x00))\n      dup1\n      0x7e6230f3\n      eq\n      tag_3\n      jumpi\n    tag_2:\n      0x00\n      dup1\n      revert\n        /* \"HelloWorld.sol\":1022:1259  function globalVars() external view returns (address,uint,uint){\r... */\n    tag_3:\n      tag_4\n      tag_5\n      jump\t// in\n    tag_4:\n      mload(0x40)\n      tag_6\n      swap4\n      swap3\n      swap2\n      swap1\n      tag_7\n      jump\t// in\n    tag_6:\n      mload(0x40)\n      dup1\n      swap2\n      sub\n      swap1\n      return\n    tag_5:\n        /* \"HelloWorld.sol\":1067:1074  address */\n      0x00\n        /* \"HelloWorld.sol\":1075:1079  uint */\n      dup1\n        /* \"HelloWorld.sol\":1080:1084  uint */\n      0x00\n        /* \"HelloWorld.sol\":1096:1110  address sender */\n      dup1\n        /* \"HelloWorld.sol\":1112:1122  msg.sender */\n      caller\n        /* \"HelloWorld.sol\":1096:1122  address sender= msg.sender */\n      swap1\n      pop\n        /* \"HelloWorld.sol\":1133:1147  uint timestamp */\n      0x00\n        /* \"HelloWorld.sol\":1150:1165  block.timestamp */\n      timestamp\n        /* \"HelloWorld.sol\":1133:1165  uint timestamp = block.timestamp */\n      swap1\n      pop\n        /* \"HelloWorld.sol\":1176:1189  uint blockNum */\n      0x00\n        /* \"HelloWorld.sol\":1192:1204  block.number */\n      number\n        /* \"HelloWorld.sol\":1176:1204  uint blockNum = block.number */\n      swap1\n      pop\n        /* \"HelloWorld.sol\":1223:1229  sender */\n      dup3\n        /* \"HelloWorld.sol\":1231:1240  timestamp */\n      dup3\n        /* \"HelloWorld.sol\":1242:1250  blockNum */\n      dup3\n        /* \"HelloWorld.sol\":1215:1251  return (sender, timestamp, blockNum) */\n      swap6\n      pop\n      swap6\n      pop\n      swap6\n      pop\n      pop\n      pop\n      pop\n        /* \"HelloWorld.sol\":1022:1259  function globalVars() external view returns (address,uint,uint){\r... */\n      swap1\n      swap2\n      swap3\n      jump\t// out\n        /* \"#utility.yul\":7:125   */\n    tag_10:\n        /* \"#utility.yul\":94:118   */\n      tag_12\n        /* \"#utility.yul\":112:117   */\n      dup2\n        /* \"#utility.yul\":94:118   */\n      tag_13\n      jump\t// in\n    tag_12:\n        /* \"#utility.yul\":89:92   */\n      dup3\n        /* \"#utility.yul\":82:119   */\n      mstore\n        /* \"#utility.yul\":7:125   */\n      pop\n      pop\n      jump\t// out\n        /* \"#utility.yul\":131:249   */\n    tag_14:\n        /* \"#utility.yul\":218:242   */\n      tag_16\n        /* \"#utility.yul\":236:241   */\n      dup2\n        /* \"#utility.yul\":218:242   */\n      tag_17\n      jump\t// in\n    tag_16:\n        /* \"#utility.yul\":213:216   */\n      dup3\n        /* \"#utility.yul\":206:243   */\n      mstore\n        /* \"#utility.yul\":131:249   */\n      pop\n      pop\n      jump\t// out\n        /* \"#utility.yul\":255:697   */\n    tag_7:\n        /* \"#utility.yul\":404:408   */\n      0x00\n        /* \"#utility.yul\":442:444   */\n      0x60\n        /* \"#utility.yul\":431:440   */\n      dup3\n        /* \"#utility.yul\":427:445   */\n      add\n        /* \"#utility.yul\":419:445   */\n      swap1\n      pop\n        /* \"#utility.yul\":455:526   */\n      tag_19\n        /* \"#utility.yul\":523:524   */\n      0x00\n        /* \"#utility.yul\":512:521   */\n      dup4\n        /* \"#utility.yul\":508:525   */\n      add\n        /* \"#utility.yul\":499:505   */\n      dup7\n        /* \"#utility.yul\":455:526   */\n      tag_10\n      jump\t// in\n    tag_19:\n        /* \"#utility.yul\":536:608   */\n      tag_20\n        /* \"#utility.yul\":604:606   */\n      0x20\n        /* \"#utility.yul\":593:602   */\n      dup4\n        /* \"#utility.yul\":589:607   */\n      add\n        /* \"#utility.yul\":580:586   */\n      dup6\n        /* \"#utility.yul\":536:608   */\n      tag_14\n      jump\t// in\n    tag_20:\n        /* \"#utility.yul\":618:690   */\n      tag_21\n        /* \"#utility.yul\":686:688   */\n      0x40\n        /* \"#utility.yul\":675:684   */\n      dup4\n        /* \"#utility.yul\":671:689   */\n      add\n        /* \"#utility.yul\":662:668   */\n      dup5\n        /* \"#utility.yul\":618:690   */\n      tag_14\n      jump\t// in\n    tag_21:\n        /* \"#utility.yul\":255:697   */\n      swap5\n      swap4\n      pop\n      pop\n      pop\n      pop\n      jump\t// out\n        /* \"#utility.yul\":703:799   */\n    tag_13:\n        /* \"#utility.yul\":740:747   */\n      0x00\n        /* \"#utility.yul\":769:793   */\n      tag_23\n        /* \"#utility.yul\":787:792   */\n      dup3\n        /* \"#utility.yul\":769:793   */\n      tag_24\n      jump\t// in\n    tag_23:\n        /* \"#utility.yul\":758:793   */\n      swap1\n      pop\n        /* \"#utility.yul\":703:799   */\n      swap2\n      swap1\n      pop\n      jump\t// out\n        /* \"#utility.yul\":805:931   */\n    tag_24:\n        /* \"#utility.yul\":842:849   */\n      0x00\n        /* \"#utility.yul\":882:924   */\n      0xffffffffffffffffffffffffffffffffffffffff\n        /* \"#utility.yul\":875:880   */\n      dup3\n        /* \"#utility.yul\":871:925   */\n      and\n        /* \"#utility.yul\":860:925   */\n      swap1\n      pop\n        /* \"#utility.yul\":805:931   */\n      swap2\n      swap1\n      pop\n      jump\t// out\n        /* \"#utility.yul\":937:1014   */\n    tag_17:\n        /* \"#utility.yul\":974:981   */\n      0x00\n        /* \"#utility.yul\":1003:1008   */\n      dup2\n        /* \"#utility.yul\":992:1008   */\n      swap1\n      pop\n        /* \"#utility.yul\":937:1014   */\n      swap2\n      swap1\n      pop\n      jump\t// out\n\n    auxdata: 0xa26469706673582212205d9bc1ff34b69b461b299fa5456e8da73bcbeeb4407f78a2f62747be486c4ac964736f6c63430008070033\n}\n",
				"bytecode": {
					"linkReferences": {},
					"object": "608060405234801561001057600080fd5b50610128806100206000396000f3fe6080604052348015600f57600080fd5b506004361060285760003560e01c80637e6230f314602d575b600080fd5b60336049565b6040516040939291906087565b60405180910390f35b60008060008033905060004290506000439050828282955095509550505050909192565b60748160b8565b82525050565b60818160e8565b82525050565b6000606082019050609a6000830186606d565b60a56020830185607a565b60b06040830184607a565b949350505050565b600060c18260c8565b9050919050565b600073ffffffffffffffffffffffffffffffffffffffff82169050919050565b600081905091905056fea26469706673582212205d9bc1ff34b69b461b299fa5456e8da73bcbeeb4407f78a2f62747be486c4ac964736f6c63430008070033",
					"opcodes": "PUSH1 0x80 PUSH1 0x40 MSTORE CALLVALUE DUP1 ISZERO PUSH2 0x10 JUMPI PUSH1 0x0 DUP1 REVERT JUMPDEST POP PUSH2 0x128 DUP1 PUSH2 0x20 PUSH1 0x0 CODECOPY PUSH1 0x0 RETURN INVALID PUSH1 0x80 PUSH1 0x40 MSTORE CALLVALUE DUP1 ISZERO PUSH1 0xF JUMPI PUSH1 0x0 DUP1 REVERT JUMPDEST POP PUSH1 0x4 CALLDATASIZE LT PUSH1 0x28 JUMPI PUSH1 0x0 CALLDATALOAD PUSH1 0xE0 SHR DUP1 PUSH4 0x7E6230F3 EQ PUSH1 0x2D JUMPI JUMPDEST PUSH1 0x0 DUP1 REVERT JUMPDEST PUSH1 0x33 PUSH1 0x49 JUMP JUMPDEST PUSH1 0x40 MLOAD PUSH1 0x40 SWAP4 SWAP3 SWAP2 SWAP1 PUSH1 0x87 JUMP JUMPDEST PUSH1 0x40 MLOAD DUP1 SWAP2 SUB SWAP1 RETURN JUMPDEST PUSH1 0x0 DUP1 PUSH1 0x0 DUP1 CALLER SWAP1 POP PUSH1 0x0 TIMESTAMP SWAP1 POP PUSH1 0x0 NUMBER SWAP1 POP DUP3 DUP3 DUP3 SWAP6 POP SWAP6 POP SWAP6 POP POP POP POP SWAP1 SWAP2 SWAP3 JUMP JUMPDEST PUSH1 0x74 DUP2 PUSH1 0xB8 JUMP JUMPDEST DUP3 MSTORE POP POP JUMP JUMPDEST PUSH1 0x81 DUP2 PUSH1 0xE8 JUMP JUMPDEST DUP3 MSTORE POP POP JUMP JUMPDEST PUSH1 0x0 PUSH1 0x60 DUP3 ADD SWAP1 POP PUSH1 0x9A PUSH1 0x0 DUP4 ADD DUP7 PUSH1 0x6D JUMP JUMPDEST PUSH1 0xA5 PUSH1 0x20 DUP4 ADD DUP6 PUSH1 0x7A JUMP JUMPDEST PUSH1 0xB0 PUSH1 0x40 DUP4 ADD DUP5 PUSH1 0x7A JUMP JUMPDEST SWAP5 SWAP4 POP POP POP POP JUMP JUMPDEST PUSH1 0x0 PUSH1 0xC1 DUP3 PUSH1 0xC8 JUMP JUMPDEST SWAP1 POP SWAP2 SWAP1 POP JUMP JUMPDEST PUSH1 0x0 PUSH20 0xFFFFFFFFFFFFFFFFFFFFFFFFFFFFFFFFFFFFFFFF DUP3 AND SWAP1 POP SWAP2 SWAP1 POP JUMP JUMPDEST PUSH1 0x0 DUP2 SWAP1 POP SWAP2 SWAP1 POP JUMP INVALID LOG2 PUSH5 0x6970667358 0x22 SLT KECCAK256 0x5D SWAP12 0xC1 SELFDESTRUCT CALLVALUE 0xB6 SWAP12 CHAINID SHL 0x29 SWAP16 0xA5 GASLIMIT PUSH15 0x8DA73BCBEEB4407F78A2F62747BE48 PUSH13 0x4AC964736F6C63430008070033 "
				},
				"gasEstimates": {
					"creation": {
						"codeDepositCost": "59200",
						"executionCost": "111",
						"totalCost": "59311"
					},
					"external": {
						"globalVars()": "infinite"
					}
				},
				"methodIdentifiers": {
					"globalVars()": "7e6230f3"
				}
			},
			"storageLayout": {
				"storage": [],
				"types": null
			},
			"userdoc": {
				"kind": "user",
				"methods": {},
				"version": 1
			}
		}
	}
}